:1000000054C0F7C16DC06CC06BC06AC069C068C025
:1000100067C066C065C064C063C062C061C00403DD
:100020000904220363007200650061007400690026
:100030007600650070006F006E0079002E0063008E
:100040006F006D001C03530069006D0070006C00B0
:1000500065002000520065006D006F0074006500AF
:100060001201100100000008C016DF0500020102A5
:10007000000109022200010100806409040000015E
:10008000030000000921010100012216000705817B
:10009000030800640600FF0901A101150026FF0006
:1000A000750895010900B20201C011241FBECFE5F9
:1000B000D2E0DEBFCDBF10E0A0E6B0E0EEECFBE0AA
:1000C00002C005900D92A636B107D9F711E0A6E659
:1000D000B0E001C01D92A83AB107E1F745D475C55B
:1000E0008FCF85B7826085BF8BB780648BBF8BE471
:1000F00080937D018AE580937C0108951F93DC0144
:10010000162F80917C0184FF07C080917D0198E8C3
:10011000892780937D0103C08AE580937C01912F1C
:10012000EEE7F1E08D91819391501916DCF38EE7A3
:1001300091E0612F47D11C5F10937C011F910895BE
:100140001F93CF93DF9360918E01635067FDBDC015
:1001500080918A01CCE0D0E0C81BD109CE56DE4F99
:10016000809189018D3209F09EC0683009F0ABC0E2
:1001700083EC809371018AE58093600010926700A0
:100180008881807639F0CE01BBD2282F8F3F09F4C9
:1001900079C07FC09A8110927A018981882321F4E5
:1001A00010927B0122E067C0853019F490938F0193
:1001B00061C0863009F04AC08B81813041F480E60D
:1001C00090E090938D0180938C0122E13BC08230BE
:1001D00019F482E790E011C08330F9F48A81882312
:1001E00041F48EE190E090938D0180938C0124E0A6
:1001F00029C0813041F482E290E090938D01809398
:100200008C0122E21FC08230E1F484E490E09093FC
:100210008D0180938C012CE115C0813241F484E87A
:1002200090E090938D0180938C0129E00BC0823285
:1002300041F484E990E090938D0180938C0126E154
:1002400001C020E080E48093670023C0883021F45F
:1002500021E081E991E011C0893019F49093910176
:1002600009C08A3011F421E006C08B3019F48BE408
:1002700080937D0120E08AE791E090938D01809347
:100280008C0107C0888187FD2E8180E880936700FC
:1002900006C08F81882319F48E81821708F0822F7F
:1002A0008093610010C08091670087FF0CC0CE0171
:1002B000A4D28F3F21F48EE18093600004C0882394
:1002C00011F01092610010928E018091600084FF05
:1002D00049C0809161008F3F09F444C0182F8930D4
:1002E00008F018E0811B809361008091710198E80B
:1002F000892780937101112341F120918C01309164
:100300008D018091670086FF0DC0A2E7B1E080E01B
:1003100090E0F901E80FF91FE491ED9301961817A9
:10032000C1F708C0912FD901E2E7F1E08D918193E7
:100330009150E1F71150812F90E01F5F0196820FDD
:10034000931F90938D0180938C0182E791E0612F40
:1003500039D0612F6C5F6C3019F08FEF80936100A2
:100360006093600094E186B3857031F49150D9F7C1
:1003700010928F011092880110E0992309F411E086
:1003800080916600811729F0112309F43DD3109361
:100390006600DF91CF911F910895A82FB92F80E0BB
:1003A00090E041E050EA609530E009C02D9182274D
:1003B0009795879510F084279527305EC8F36F5F77
:1003C000A8F30895EADF8D939D930895A6E088270A
:1003D0009927AA9569F00197E1F3B099FCCFB09BFA
:1003E000FECF81E09927A6B3019611F0A570D9F749
:1003F0000895CF93CFB7CF93C395B09BE9F7B09B48
:1004000010C0B09B0EC0B09B0CC0B09B0AC0B09B8C
:1004100008C0B09B06C0C0918B01C395C0938B01EF
:10042000D5C00F92DF93C0918A01DD27CE56DE4FF3
:10043000012EB09B03C0DF910F90E1CF2F930F935C
:100440001F934F932FEF4F6F06B300FB20F95F937D
:100450003F9350E03BE065C016B30126502950FDA4
:10046000C89556B3012700FB25F92F7306B3B1F0E9
:100470005027102710FB26F906B22230F0F000C0FA
:1004800016B3012700FB27F90126502906B22430B4
:10049000E8F54F77206816B30000F6CF50274F7D60
:1004A000206206B2102F000000C006B300265029BB
:1004B000102710FB26F906B2E2CF4F7B06B320646B
:1004C00000C0DACF01265029157006B269F14E7FBF
:1004D0002160012F16B328C0002650294D7F06B297
:1004E0002260102F29C0012650294B7F06B22460BC
:1004F000012F2DC016B301265029477F2860000028
:1005000006B22EC04F7E06B3206130C0422706B32C
:10051000499300265029102706B24FEF10FB20F90F
:10052000297F16B379F2157059F10126502906B2C8
:10053000012700FB21F9237F06B371F20026502921
:100540003150D0F006B2102710FB22F9277E16B3E7
:1005500051F201265029012700FB06B223F92F7C16
:1005600049F2000006B3102710FB24F90026502999
:1005700006B22F7939F270CF10E41ABF002719C0E4
:100580003B503195C31BD04010E41ABF0881033C97
:1005900009F10B34F9F0209188011981110F121320
:1005A000EDCF4A81441F093651F10D3211F0013E61
:1005B00029F7009390013F915F914F911F910F9107
:1005C0002F91DF910F90CAB7C6FD16CFCF91CFBF45
:1005D000CF91189520919001222369F310918E01FB
:1005E000112379F534307AF130938E01209389010B
:1005F00010918A013BE0311B30938A0124C00091A5
:100600008E010130F4F40AE54F7049F43091600036
:1006100034FD1AC000936000C1E7D1E019C03091E9
:100620007C0134FD11C000937C01CDE7D1E010C006
:10063000052710E000C021C0052710E0C89508BBC1
:1006400014C03AE501C032ED032EC0E0D0E032E044
:1006500017B31560C09A08B317BB55E020E84FEFF9
:1006600020FF052708BB279517951C3F28F700009A
:100670004552B0F720FF0527279508BB17951C3F6B
:10068000B8F629913A9561F70A7F10918F01110F01
:1006900008BBC250D04011F01093880110E41ABF7B
:1006A000016017B31A7F402F4A7F54E05A95F1F743
:1006B00008BB17BB48BB7FCF2DE130E104C0F90177
:1006C0003197F1F701970097D1F70895382F6623F6
:1006D00059F028B381E090E002C0880F991F3A9545
:1006E000E2F7282B28BB089528B381E090E002C0F0
:1006F000880F991F3A95E2F78095822388BB089569
:10070000FC0180818076803409F075C0818182315E
:1007100039F484E790E49093700180936F014DC0A9
:10072000803221F482818093680063C0813219F4A1
:1007300088E690E032C0823221F4828180936500A5
:1007400058C0833219F485E690E027C0853051F413
:1007500010926E01868197819695879580936A01A4
:100760008FEF0895863051F48AE690E090938D01E2
:1007700080938C0180916A01880F0895873019F465
:100780008AE691E00AC08A3021F482818093690070
:1007900030C0813141F482E690E090938D018093E6
:1007A0008C0181E00895843181F48091630080930D
:1007B0006F0180916400809370018FE691E09093C7
:1007C0008D0180938C0182E00895803121F4828133
:1007D000809362000EC0833139F48281809363007C
:1007E00084818093640005C0843229F482818093DF
:1007F0006B0180E0089580E00895DC01362F609160
:100800006E01862F90E0830F911D8150914010F072
:10081000362F3195232F962F08C0E92FF0E0E659A7
:10082000FF4F8D91808321509F5F2223B1F7932F3B
:10083000960F90936E0180916A01981708F021E05D
:10084000822F0895FF920F931F93CF93DF93B99850
:10085000C19883E08ABD82E083BF83B7886083BF8D
:100860008091630089BD8091640088BD8AB58062F3
:100870008ABD80916A010AE610E0C82FD0E0CC0F53
:10088000DD1FC00FD11F32E0F32E18C087B38F25B4
:1008900087BBF801619171918F016650704080E0D3
:1008A00090E025EA30E040E050E0FCD028E230E083
:1008B00040E050E023D1C9010197F1F70C171D0763
:1008C00029F71ABC13BEB998C198DF91CF911F9137
:1008D0000F91FF9008952091680030916D012223BF
:1008E00021F190916C01809165008917F0F0822FC1
:1008F00090E0831B910962E070E0EDD0CB0163E0F2
:1009000070E0E9D0882329F4BC98C498C39ABB9AB4
:1009100012C0813019F4C398C49A05C0823059F4CA
:1009200088B3877E88BBBC9A06C087B3877E87BBA7
:1009300088B3877E88BB10926D01332319F481E060
:1009400080936D0180916C018F5F80936C0108959D
:10095000982F80916B01882331F08FEF8093650091
:1009600090936800B8DF08951F93CF93DF9388E1D9
:100970000FB6F89481BD11BC0FBE80E090E00FD19E
:100980008F3F09F081BF87B38A7F87BB88B38A7F97
:1009900088BBB99AC198A5DBB89A84E690E02DE1AE
:1009A00030E1F9013197F1F70197D9F7B8987894C8
:1009B00087B3886187BBCDE1D0E1C2DB8CDF80915A
:1009C00069008823D1F381E0C3DF3CDF80916900B7
:1009D00081508093690080E0BBDF10916200169522
:1009E00016950FC0ADDBCE010197F1F7CE0101974F
:1009F000F1F7CE010197F1F7CE010197F1F76BDF27
:100A000011501123D1F2EECFDF92EF92FF920F93AC
:100A10001F93CF93DF9300E050E8D52EEE24FF2400
:100A20001D2D100F11BFD2DCEC0189E0C433D807B3
:100A30000CF0102FD6940894E11CF11C88E0E81605
:100A4000F10411F0012FECCF115011BF1F5FE12E07
:100A5000FF240894E11CF11C13C0B8DC9C01245352
:100A6000394037FF03C0309521953F4F2C173D0784
:100A700014F09E0101C011B781B78F5F81BFE901FA
:100A800081B790E0E816F90644F711BF61B780E03E
:100A900090E08DD0DF91CF911F910F91FF90EF905B
:100AA000DF900895FF27EE27BB27AA2760FF04C029
:100AB000A20FB31FE41FF51F220F331F441F551F42
:100AC000969587957795679589F70097760771F7DB
:100AD000CF01BD01089597FB092E07260AD077FDA7
:100AE00004D027D006D000201AF4709561957F4F6E
:100AF0000895F6F7909581959F4F089597FB092EDD
:100B000005260ED057FD04D028D00AD0001C38F49A
:100B100050954095309521953F4F4F4F5F4F089529
:100B2000F6F790958095709561957F4F8F4F9F4F09
:100B30000895AA1BBB1B51E107C0AA1FBB1FA61724
:100B4000B70710F0A61BB70B881F991F5A95A9F776
:100B500080959095BC01CD010895A1E21A2EAA1BA3
:100B6000BB1BFD010DC0AA1FBB1FEE1FFF1FA2175D
:100B7000B307E407F50720F0A21BB30BE40BF50B5A
:100B8000661F771F881F991F1A9469F760957095E3
:100B9000809590959B01AC01BD01CF010895E1992D
:100BA000FECF9FBB8EBBE09A99278DB30895262F69
:100BB000E199FECF1CBA9FBB8EBB2DBB0FB6F8943C
:0E0BC000E29AE19A0FBE01960895F894FFCFD5
:060BCE005AFF323919FF45
:00000001FF
